S01400005434355069657A6F546573742E73726563AC
S11300000EC01DC01CC01BC01AC019C018C017C028
S113001016C015C014C013C03EC011C010C01124B6
S11300201FBECFE5D1E0DEBFCDBF20E0A0E6B0E04B
S113003001C01D92A236B207E1F744D085C0E0CFDB
S1130040882341F090E02AE12A95F1F700C09F5FF0
S11300508913F9CF08950F931F93CF93DF93EC0186
S1130060162FC39AC498892B39F008E1219706BB4F
S1130070812FE6DF2097D1F7DF91CF911F910F9168
S11300800895F89484B7877F84BF81B5816681BD64
S1130090A895789408951F920F920FB60F92112489
S11300A08F939F938091600090916100019690934B
S11300B06100809360009F918F910F900FBE0F900D
S11300C01F901895BB9ABC9A85B7877E806185BFBF
S11300D0D8DF789465E070E088EE93E0BCDF68ECEC
S11300E070E089E190E0B7DF64EF71E082E390E0D3
S11300F0B2DF62E370E084E690E0ADDF69E170E0D6
S113010088EC90E0A8DF6AE070E084EF91E0A3DF80
S113011068E070E088E592E09EDF67E070E08CEBD9
S113012092E099DF66E070E080E293E094DF65E0BE
S113013070E088EE93E08FDF85B7806285BF889595
S10F014085B78F7D85BFC6CFF894FFCF34
S9030000FC
