S01600005438354D6963686973566F67656C2E73726563F3
S11300000EC01DC01CC01BC01AC019C018C017C028
S113001016C015C014C013C084C011C010C0112470
S11300201FBECFE5D2E0DEBFCDBF20E0A0E6B0E04A
S113003001C01D92A236B207E1F78AD0E7C1E0CF32
S1130040009759F020E030E04AE14A95F1F700C00A
S11300502F5F3F4F82179307B9F708950F931F93AC
S1130060CF93DF93EC018B0187B3886187BBC39A7D
S1130070C498209741F0219786B3886186BBC80154
S1130080DFDF2097C1F788B3877E88BB8AE18A9532
S1130090F1F700C0DF91CF911F910F91089587B3BD
S11300A0876087BB88B38C7F88BBC29A8AE18A95B4
S11300B0F1F700C087B38C7F87BB86B3837081F46C
S11300C020E030E02F5F3F4F8AE18A95F1F700C0CE
S11300D096B3937039F4203187E2380799F702C058
S11300E020E030E0C29888B38C7F88BB87B38760F8
S11300F087BBC901089527B3276027BBC29828B3DB
S1130100236028BB9DDF88B38C7F88BB0895F89457
S113011084B7877F84BF81B5816681BDA8957894B3
S113012008951F920F920FB60F9211248F939F93ED
S1130130809160009091610001969093610080939A
S113014060009F918F910F900FBE0F901F90189594
S113015087B3886187BBBA9AC09AC19A2FEF69E6C0
S113016088E1215060408040E1F700C00000C09861
S1130170C19885B7877E806185BFC9DF03EA14E92A
S1130180D1EECCEA80916000909161000197B9F4BE
S11301900F2EF8ECEF2EF12CF02D81DF969587953C
S11301A09695879596958795BC016B5F7F4F8AE0FE
S11301B090E054DF91E0E91AF10879F70FC18091DA
S11301C060009091610080FD09C180916000909170
S11301D0610081FD03C1809160009091610082FF04
S11301E00DC068E070E08CE291E038DF58DF83DF17
S11301F066E070E080E991E031DFF0C0809160005A
S11302009091610083FF48C087B3886187BBC39A1C
S1130210C49AE8ECF0E0202F312F8D2F9C2F35C0AD
S11302204F5F5F4F6DE36A95F1F70000BC0176956F
S11302306795817099279195819591098827947B79
S1130240862797274230510509F4D2C0B901769523
S11302506795217033273195219531092227347B05
S113026026273727A6B3682F6170660F660F660FBF
S1130270722F71707295707F672B6A2B66BB4C323C
S113028061E0560768F2319719F041E050E0CACFB7
S113029088B3877E88BBA2C0809160009091610082
S11302A084FF65C065E070E088EE93E0D7DE60E926
S11302B071E089E190E0D2DE68EC70E082E390E0E6
S11302C0CDDE62E370E084E690E0C8DE69E170E0D0
S11302D088EC90E0C3DE6AE070E084EF91E0BEDE7B
S11302E068E070E088E592E0B9DE67E070E08CEBEE
S11302F092E0B4DE66E070E080E293E0AFDE64E1B9
S113030070E088EE93E0AADE6BE170E085EE92E0A7
S1130310A5DE66E070E080E293E0A0DE67E070E0D6
S11303208CEB92E09BDE68E070E088E592E096DE7C
S11303306AE070E084EF91E091DE69E170E088ECBE
S113034090E08CDE62E370E084E690E087DE68ECA7
S113035070E082E390E082DE60E971E089E190E0A0
S11303607DDE65E070E088EE93E078DE37C0809152
S113037060009091610085FF31C06894FF24F2F819
S113038060E570E08CE291E069DE6CE370E080E9A6
S113039091E064DE60E570E08CE291E05FDE8FEF77
S11303A09BED25E0815090402040E1F700C0000023
S11303B060E570E08CE291E051DE6CE370E080E98E
S11303C091E04CDE6FEF8FE697E161508040904002
S11303D0E1F700C00000FA94F110D2CF789485B709
S11303E0806285BF889585B78F7D85BFF894CACE16
S11303F066B3722F71707295707F762B682F61705F
S1130400660F660F660F672B66BB0ACFF894FFCFA3
S9030000FC
