S0120000543835416C6C546573742E7372656398
S11300000EC01DC01CC01BC01AC019C018C017C028
S113001016C015C014C013C074C011C010C0112480
S11300201FBECFE5D2E0DEBFCDBF20E0A0E6B0E04A
S113003001C01D92A236B207E1F77AD0D1C0E0CF59
S1130040009759F020E030E04AE14A95F1F700C00A
S11300502F5F3F4F82179307B9F70895FF920F93CD
S11300601F93CF93DF93EC018B01B39AC498892B30
S113007051F00F2EF8E1FF2EF02D2197F6BAC801AA
S1130080DFDF2097D1F7DF91CF911F910F91FF9080
S1130090089588B38C7F88BBC29A8AE18A95F1F768
S11300A000C087B38C7F87BB86B3837081F420E064
S11300B030E02F5F3F4F8AE18A95F1F700C096B395
S11300C0937039F4203187E2380799F702C020E0B1
S11300D030E0C29887B3836087BBC901089528B311
S11300E0236028BBADDF88B38C7F88BB0895F89468
S11300F084B7877F84BF81B5816681BDA8957894D4
S113010008951F920F920FB60F9211248F939F930D
S113011080916000909161000196909361008093BA
S113012060009F918F910F900FBE0F901F901895B4
S1130130BB9ABC9AB89AB99ABA9A85B7877E8061F5
S113014085BFD5DF7894809160009091610080FF35
S113015033C065E070E088EE93E080DF68EC70E027
S113016089E190E07BDF64EF71E082E390E076DF89
S113017062E370E084E690E071DF69E170E088ECAE
S113018090E06CDF6AE070E084EF91E067DF68E0A4
S113019070E088E592E062DF67E070E08CEB92E06B
S11301A05DDF66E070E080E293E058DF65E070E0D8
S11301B088EE93E053DF0CC065E070E088EE93E0D6
S11301C04DDF67DF8CDF6AE070E084EF91E046DFAB
S11301D085B7806285BF889585B78F7D85BFB3CF8E
S10701E0F894FFCFBD
S9030000FC
