S0120000543835416C6C546573742E7372656398
S11300000EC01DC01CC01BC01AC019C018C017C028
S113001016C015C014C013C084C011C010C0112470
S11300201FBECFE5D2E0DEBFCDBF20E0A0E6B0E04A
S113003001C01D92A236B207E1F78AD0CFC1E0CF4A
S1130040009759F020E030E04AE14A95F1F700C00A
S11300502F5F3F4F82179307B9F708950F931F93AC
S1130060CF93DF93EC018B0187B3886187BBC39A7D
S1130070C498209741F0219786B3886186BBC80154
S1130080DFDF2097C1F788B3877E88BB8AE18A9532
S1130090F1F700C0DF91CF911F910F91089587B3BD
S11300A0876087BB88B38C7F88BBC29A8AE18A95B4
S11300B0F1F700C087B38C7F87BB86B3837081F46C
S11300C020E030E02F5F3F4F8AE18A95F1F700C0CE
S11300D096B3937039F420328EE4380799F702C04E
S11300E020E030E0C29888B38C7F88BB87B38760F8
S11300F087BBC901089527B3276027BBC29828B3DB
S1130100236028BB9DDF88B38C7F88BB0895F89457
S113011084B7877F84BF81B5816681BDA8957894B3
S113012008951F920F920FB60F9211248F939F93ED
S1130130809160009091610001969093610080939A
S113014060009F918F910F900FBE0F901F90189594
S113015087B3886187BBBA9AC09AC19A2FEF49E6E0
S113016068E1215040406040E1F700C00000C098C1
S1130170C19885B7877E806185BFC9DFC12C0F2EEA
S1130180F4EBDF2EF02D03EA14E9D1EECCEA8091F2
S11301906000909161000197C1F40F2EF8EEEF2EEC
S11301A0F3E0FF2EF02D7BDF969587959695879546
S11301B096958795BC016B5F7F4F8AE090E04EDF98
S11301C081E0E81AF10879F7F1C08091600090911C
S11301D0610081FF77C087B3886187BBC39AC498E5
S11301E09DE39A95F1F7000024E43CEA8C2D9D2DC3
S11301F015C04DE34A95F1F70000AC0156954795BB
S1130200817099279195819591098827947B8427FA
S1130210952780FF03C046B3486146BB215031098E
S113022041F764E170E08AEF90E018DF87B38861FA
S113023087BBC39AC49AA4E03AC04F5F5F4F6DE393
S11302406A95F1F70000BC0176956795817099274E
S11302509195819591098827947B86279727423029
S1130260510509F4ADC0B90176956795217033271E
S11302703195219531092227347B26273727B6B3B8
S1130280682F6170660F660F660F722F717072951A
S1130290707F672B6B2B66BB483E63E0560768F2A2
S11302A0319719F041E050E0CACFA15039F0E8ECA1
S11302B0F0E0202F312F8D2F9C2FF4CF88B3877E31
S11302C088BB74C0809160009091610082FF33C04C
S11302D065E070E088EE93E0C1DE68EC70E089E1EF
S11302E090E0BCDE64E670E082E390E0B7DE62E3B7
S11302F070E084E690E0B2DE69E170E088EC90E0C2
S1130300ADDE6AE070E084EF91E0A8DE68E070E0C2
S113031088E592E0A3DE67E070E08CEB92E09EDE7D
S113032066E070E080E293E099DE65E070E088EEDC
S113033093E094DE3BC0809160009091610083FF64
S113034023C068E270E088E592E088DE6EE170E048
S113035080E293E083DE68E270E088E592E07EDE8E
S11303608FEF9BED25E0815090402040E1F700C0E5
S1130370000068E270E088E592E070DE6EE170E013
S113038080E293E06BDE12C0809160009091610086
S113039084FF0CC068E270E08CE291E05FDE7FDEF7
S11303A0AADE6EE170E080E991E058DE789485B7CA
S11303B0806285BF889585B78F7D85BFF894E7CE29
S11303C066B3722F71707295707F762B682F61708F
S11303D0660F660F660F672B66BB2FCFF894FFCFAF
S9030000FC
