S0120000543835416C6C546573742E7372656398
S11300000EC01DC01CC01BC01AC019C018C017C028
S113001016C015C014C013C084C011C010C0112470
S11300201FBECFE5D2E0DEBFCDBF20E0A0E6B0E04A
S113003001C01D92A236B207E1F78AD0B6C1E0CF63
S1130040009759F020E030E04AE14A95F1F700C00A
S11300502F5F3F4F82179307B9F708950F931F93AC
S1130060CF93DF93EC018B0187B3886187BBC39A7D
S1130070C498209741F0219786B3886186BBC80154
S1130080DFDF2097C1F788B3877E88BB8AE18A9532
S1130090F1F700C0DF91CF911F910F91089587B3BD
S11300A0876087BB88B38C7F88BBC29A8AE18A95B4
S11300B0F1F700C087B38C7F87BB86B3837081F46C
S11300C020E030E02F5F3F4F8AE18A95F1F700C0CE
S11300D096B3937039F420328EE4380799F702C04E
S11300E020E030E0C29888B38C7F88BB87B38760F8
S11300F087BBC901089527B3276027BBC29828B3DB
S1130100236028BB9DDF88B38C7F88BB0895F89457
S113011084B7877F84BF81B5816681BDA8957894B3
S113012008951F920F920FB60F9211248F939F93ED
S1130130809160009091610001969093610080939A
S113014060009F918F910F900FBE0F901F90189594
S113015087B3886187BBBA9AC09AC19A2FEF49E6E0
S113016068E1215040406040E1F700C00000C098C1
S1130170C19885B7877E806185BFC9DFC12C0F2EEA
S1130180F4EBDF2EF02D03EA14E9D1EECCEA8091F2
S11301906000909161000197C1F40F2EF8EEEF2EEC
S11301A0F3E0FF2EF02D7BDF969587959695879546
S11301B096958795BC016B5F7F4F8AE090E04EDF98
S11301C081E0E81AF10879F7E6C080916000909127
S11301D0610081FF6CC087B3886187BBC39AC498F0
S11301E09DE39A95F1F7000024E43CEA8C2D9D2DC3
S11301F015C04DE34A95F1F70000AC0156954795BB
S1130200817099279195819591098827947B8427FA
S1130210952780FF03C046B3486146BB215031098E
S113022041F788B3877E88BB65E070E088EE93E091
S113023015DF87B3886187BBC39AC49AE8ECF0E002
S1130240202F312F8D2F9C2F2BC06DE36A95F1F752
S11302500000BC01769567958170992791958195E9
S113026091098827947B862797274130510561F0AF
S1130270B901769567952170332731952195310918
S11302802227347B2627372780FDB39A20FDB49A92
S11302904F5F5F4F4D3968E05607B9F6319719F053
S11302A040E050E0D2CF88B3877E88BB74C0809191
S11302B060009091610082FF33C065E070E088EED9
S11302C093E0CCDE68EC70E089E190E0C7DE64E6A0
S11302D070E082E390E0C2DE62E370E084E690E0E6
S11302E0BDDE69E170E088EC90E0B8DE6AE070E0C1
S11302F084EF91E0B3DE68E070E088E592E0AEDE82
S113030067E070E08CEB92E0A9DE66E070E080E2EA
S113031093E0A4DE65E070E088EE93E09FDE3BC0EE
S1130320809160009091610083FF23C068E270E0D7
S113033088E592E093DE6EE170E080E293E08EDE89
S113034068E270E088E592E089DE8FEF9BED25E0BE
S1130350815090402040E1F700C0000068E270E066
S113036088E592E07BDE6EE170E080E293E076DE89
S113037012C0809160009091610084FF0CC068E21B
S113038070E08CE291E06ADE8ADEB5DE6EE170E058
S113039080E991E063DE789485B7806285BF8895B3
S11103A085B78F7D85BFF894F2CEF894FFCF19
S9030000FC
